S01B00004D656469646F725F74656D70657261747572612E737265633C
S113000030280020BD2D0000B92D0000B92D0000BE
S113001000000000000000000000000000000000DC
S11300200000000000000000000000001B2F000082
S113003000000000000000002D2F0000712F0000C0
S1130040B92D000039350000B92D0000B92D00008C
S113005095080000B92D0000B92D0000B92D00004D
S1130060B92D0000C11C0000D11C0000E11C0000DF
S1130070F11C0000011D0000111D0000B92D00003D
S1130080B92D0000B92D0000B92D0000B92D0000D4
S1130090B92D00000000000000000000B92D000090
S11300A0B92D000000000000B92D00000000000080
S11300B00000000010B5064C2378002B07D1054B37
S11300C0002B02D0044800E000BF0123237010BDC0
S11300D09800002000000000286B0000084B10B5B9
S11300E0002B03D00749084800E000BF0748036815
S11300F0002B00D110BD064B002BFBD09847F9E72D
S1130100000000009C000020286B0000286B000009
S11301100000000010B5002200230270427000218C
S11301204280017103760262C26182600624047314
S1130130C0246401C481037443748374C374037559
S11301402A24035543758375063C0355C2840285EE
S1130150C1752B23C1540133C15410BDF0B5D6462B
S11301604F464646C0B596B0070016000160CB4A1C
S1130170106A80235B02034313620B780520DB07BC
S113018005D516B01CBC90469946A246F0BD0B7826
S113019017309B07F5D473783B71002B04D1C04A08
S11301A0136C04210B4313643B68984633786A4606
S11301B0137069461E20BB4B98471E20BA4B9847C4
S11301C02C23F25C002A54D0013BF55C337BEB1802
S11301D0DBB2D118C9B28B4221D25219D3B299469B
S11301E0B24B9A4603E00135EDB2A94517D00F246E
S11301F02C40337BE4185022AD4902A8D047132C7D
S1130200F1D8A40002ABE05801A900234B70CB70D5
S11302108B7001330B70C0B2A64B9847E3E7F489A7
S11302205022A34902A8A14B9847132C13D9737DDC
S11302309B00DBB242461370B37DDB01727813433B
S1130240DBB2424653703379342B00D978E19B00FA
S1130250994AD3589F46A40002ABE05801A9002351
S11302604B70CB708B7001330B70C0B2914B9847BD
S1130270DDE7347B50228E4902A88C4B9847132C1F
S113028015D9F48950228A4902A8884B9847132C1F
S1130290CDD8A40002ABE05801A900234B70CB7069
S11302A08B7001330B70C0B2824B9847BFE7A40038
S11302B002ABE05801A900234B70CB708B70013363
S11302C00B70C0B27B4B9847DBE704231024022158
S11302D01AE0717C337C102416E0062310240121DB
S11302E012E00823102400210EE000233024002112
S11302F00AE000232024002106E00023002400213A
S113030002E0022310240121090170220A40134350
S113031042469370F37D17203F2B00D931E7D37009
S11303203A68537E5BB2002BFBDBF37C7288134389
S11303302422B25CD2001343327D92001343B27C78
S113034052001343234342469380337E002B20D034
S1130350102C00D1D6E000D880E0202C00D1B3E0EE
S1130360302C16D1F27C002A0AD0F2698032172090
S1130370FF2A00D905E7326A8032FF2A00D900E754
S11303801720F269FF2A00DDFBE6326AFF2A00DD4E
S1130390F7E639684A7E52B2002AFBDB4246137202
S11303A03A68537E5BB2002BFBDBB38B42469383EC
S11303B03A68537E5BB2002BFBDB338C42461384DA
S11303C02C23F35C002B05D0013BDBB217200F2B51
S11303D000D9D6E62B22B15C17200F2900D9D0E62C
S11303E03868427E52B2002AFBDBF289307B02433A
S11303F0B068024309050A431B04134342461361D0
S11304002A23F35C13750F2393751533F35C002BC8
S113041012D0F38C294A1720934200D9B1E6424600
S11304209384328D80231B01D31824499BB28B42C1
S113043000D9A6E64346DA84214B1B685B01E0221F
S1130440D20013401F4A516849011268D20E0A4370
S1130450D2B2134342461385002092E6002C98D171
S1130460F27C002A0FD0F269802109018C46624493
S1130470124917208A4200D983E6326A62440F493E
S11304808A4200D97DE60D4A1720F169914200DDC8
S113049077E6316A914200DD73E67AE700040040B2
S11304A000080040612C0000D52B000045510000DD
S11304B05C630000592D000088620000FF0F0000FB
S11304C02460800020608000F27C002A0FD0F26952
S11304D0802189008C4662441A4917208A4200D937
S11304E04FE6326A624417498A4200D949E6154AFE
S11304F01720F169914200DD43E6316A914200DD43
S11305003FE646E7F27C002A0FD0F2698021090217
S11305108C4662440C4917208A4200D931E6326A7B
S1130520624409498A4200D92BE6074A1720F16937
S1130530914200DD25E6316A914200DD21E628E79B
S113054017201EE6FF030000FFFF0000044A137893
S113055002210B43137053785BB2002BFBDB704713
S11305600018004000B583B0124A936940210B4340
S1130570936101A900230B7005200F4B98470520B8
S11305800E4B98470E4A137801210B43137053788E
S11305905BB2002BFBDB0B4B19004031002204C380
S11305A09942FCD11022084B1A60084B984703B0BB
S11305B000BDC04600040040612C0000D52B0000A3
S11305C0001800406006002000E100E04D05000036
S11305D00368987AC009704770B504000668054D31
S11305E02000A8470028FBD133880222134333801C
S11305F070BDC046D105000070B504000668064D04
S11306002000A8470028FBD1C123B371337233887B
S113061002229343338070BDD105000070B50400FD
S11306200668064B9847064D2000A8470028FBD1D2
S1130630338801221343338070BDC046F90500009E
S1130640D1050000F0B583B00400019115000668DF
S1130650114F2000B8470028FBD12379002B0AD082
S1130660012B16D11730012D14D80635AD00019B8E
S1130670AB5100200EE01720022D0BD8074B019A36
S11306809A4207D86B469B880C356D00AB5300200B
S113069000E01A2003B0F0BDD1050000FFFF000008
S11306A0F0B583B00400160001602E4A936920213E
S11306B00B43936101A902230B7004202A4B984732
S11306C004202A4B98472000294B9847B37823717C
S11306D033796371274B1C60276833883B80B37878
S11306E0002B21D01720012B1CD13B889BB23B80CF
S11306F0F378002B03D03B88802213433B801E4DAC
S11307002000A8470028FBD10022B16820001B4B21
S1130710984733790020002B04D07B888022D201B3
S113072013437B8003B0F0BD3B88042213433B801A
S1130730F3781720002BF5D10F4D2000A84700288F
S1130740FBD10022B16820000C4B98470A4D2000D1
S1130750A8470028FBD10122F1682000074B9847E5
S1130760D7E7C04600040040612C0000D52B0000F0
S11307701D060000A0060020D1050000450600006B
S1130780F8B504000E0003791520002B00D0F8BD45
S11307902768034D2000A8470028FBD1BE82F6E756
S11307A0D10500000379002B05D0012B0DD10023C6
S11307B001290BD802E00023022907D80368187A1C
S11307C0C0B208410123034000E000231800704731
S11307D00379002B05D0012B0ED1163301290CD837
S11307E002E01723022908D8006801228A40032363
S11307F013400372002300E01A231800704700001E
S1130800F0B5C64600B50C00904600280FD1002A6A
S113081011DD8F18094E0A4D306821002B68984766
S11308200134BC42F8D1404604BC9046F0BD0123DB
S11308305B429846F7E78046F5E7C046AC060020E1
S1130840A4060020F0B5C64600B50E001500013818
S1130850022810D8002A11D000240C4B98460C4FC3
S113086043461868315D3B689847002808DB01342B
S1130870A542F5D106E00124644203E0140001E03E
S113088001246442200004BC9046F0BDAC06002064
S1130890A806002070B50022104B1A7000231049DE
S11308A01F25104E0D4C0AE00D4908E02378013352
S11308B0DBB223700F2B10D800211F2BF4D9280092
S11308C018400122824008691042EFD00A619B005F
S11308D09B59002BEAD09847E8E770BDB00600208A
S11308E0001800406006002010B51B4B5B6B9B0793
S11308F004D5194A536B0224A34353634A880B88D3
S11309000C792343134380246400A2420DD08A79D6
S1130910002A01D004221343CA79002A01D04022BC
S11309201343002805D0172010BD802292001343E2
S1130930EDE74A7917303F2AF6D81204FC218903DF
S11309400A401343044A5363110080221201CB6806
S11309501342FCD00020E7E70008004010B51E4A0F
S1130960D36904210B43D3611C4B2022FF321A8329
S11309701A7D0523D20701D4180010BD03781B0289
S1130980C022920013404178C901FF220A40134358
S1130990817849001E220A401343C27892048021C0
S11309A0C9020A40134302791204C02189020A4091
S11309B013430A4A536093685B035B0F0849082496
S11309C09C400C8093684B8043780B71138BDB0540
S11309D0DB0F1B01D0E7C04600040040004000418B
S11309E0B400002030B50400224A108853884343E1
S11309F08B4206D28022920118201F4BCB189342BF
S1130A000ED81E4B5D688022D2022A435A602022EF
S1130A10FF321A831B7DDB0703D4184B5D6005206E
S1130A2030BD452C22D8A300154AD3589F46134BFA
S1130A301B8BDB0503D5114B5D601020F0E78908A3
S1130A4049000E4BD96103E0890849000B4BD96179
S1130A50A52000020443094B1C80190001220B7DD0
S1130A601342FCD0054B5D600020D9E7034B5D6069
S1130A701720D5E7B400002000C07FFF00400041EC
S1130A80AC630000F8B5254B1D885B886B431824C4
S1130A90834201D22000F8BD6B1E1842FAD1013CFA
S1130AA09542F7D31E4B1B7D123CDB07F2D51D4C40
S1130AB01B4B1C801D0001242B7D2342FCD02024D1
S1130AC0FF34174B1C83002A22D0012305009D43C9
S1130AD00023571E09E0CE187678360234432C8062
S1130AE002339BB202359A4204D9CC5CBB42F2DB9E
S1130AF0A4B2F4E7094B1B790024002BCAD13F2A86
S1130B00C8D8002201000420074B98470400C1E71D
S1130B10024B1B790024002BF3D0BBE7B400002068
S1130B200040004144A5FFFFE509000070B5184BE3
S1130B301D885B886B431824834201D2200070BD5A
S1130B406B1E1842FAD1013C9542F7D3114B1B7D21
S1130B50123CDB07F2D52024FF340E4B1C83002A01
S1130B6014D0012398430023561E04E002339BB2A1
S1130B7002309A4208D90488A4B2CC54B342F5DABC
S1130B80CD18240A6C70F1E70024D7E70024D5E7D8
S1130B90B400002000400041134B1A885B88534383
S1130BA01821834201D2080070479200013A104292
S1130BB0F9D10E4B1B7D1339DB07F4D50B4B2022E7
S1130BC0FF321A8380084000D861094A1A8019004C
S1130BD001220B7D1342FCD0044B198B1C200140D5
S1130BE0481E81418900DEE7B40000200040004136
S1130BF002A5FFFF134B2022FF321A8399684A0390
S1130C00520F08239340037041800F4B1B885B06EF
S1130C105B0F072B10D00622D21A042393404360A3
S1130C20094B1B8807221340072B08D00722D21A2E
S1130C30042393408360704700234360F0E700235C
S1130C408360F8E7004000410040800070B5040272
S1130C50034E044D73681819A8470528FAD070BDCF
S1130C60BC000020990B0000F0B5DE4657464E4606
S1130C704546E0B583B04D4B1B89002B00D18FE076
S1130C8000254A4B9A461F0027E00198484B984795
S1130C900434A4B2454B1B89A34218D9013B9C429E
S1130CA0F6D07A68A301D35CFF2BF1D09E42EFD13A
S1130CB04B46D35C4146515C9942E6D05946525C5E
S1130CC09A42E2D0A008C0B2394B9847E0E7043515
S1130CD0ADB2364B1B899D4217D2AB0198465346A1
S1130CE05B6842469E5CFF2EF1D02C1DA4B22F4BB4
S1130CF01B899C4209D280224244914640224244AC
S1130D009346AA08D2B20192C8E7002B43D0274ADF
S1130D10977A516800225E1E244D04E0013240316E
S1130D2090B298420AD29642F8D0087884B2FF2C46
S1130D30F4D0BC42F2D22818C272EFE73F208722D7
S1130D401A4988549D081FD04C6804210027013B90
S1130D5013E0013292B2914207D09A42F9D0900145
S1130D60005DFF28F5D00026F3E7002E09D10137F6
S1130D70BFB2043189B2BD4206D00A1F92B2012625
S1130D80EBE78723094AD75403B03CBC9046994605
S1130D90A246AB46F0BD3F218723044AD154F3E772
S1130DA03F218723014AD154EEE7C046BC0000200E
S1130DB04D0C0000F8B50D008401054F054E7B680D
S1130DC0181940222900B0470528F8D0F8BDC046BC
S1130DD0BC0000202D0B0000F8B50D008401054F68
S1130DE0054E7B68181940222900B0470528F8D021
S1130DF0F8BDC046BC000020850A000070B584011F
S1130E00044E054D7368191900220420A8470528CB
S1130E10F8D070BDBC000020E509000010B598B002
S1130E2016AB0021197001225A702E4A5268D2065C
S1130E30120F9A70D97019712B4C16A8A047052867
S1130E40FBD013A8294B9847149B16200B2B01D8D1
S1130E5018B010BD264C23811A00083A5208A27219
S1130E601B049B0A5B428022D20294466344636063
S1130E700022C823E2541F4B98478723E35C1A20BF
S1130E803F2BE5D06A461C4B13CB13C2184B188971
S1130E90013880B21100194B9847039B009A934282
S1130EA019D1049B019A934217D1059B029A93424C
S1130EB015D103ABDB7B1020012BC9D103AB1B7B0A
S1130EC0012BC5D103AB5B7B002BC1D10122084BA5
S1130ED01A700020BCE71A20BAE71A20B8E71A20D3
S1130EE0B6E7C046004000415D090000F50B000074
S1130EF0BC000020690C0000C4640000B50D0000B3
S1130F0070B594B02F4C00228723E25400202E4B5E
S1130F1098472589042D25D90026042419E0A00822
S1130F20C0B2294B984704AD4022FF212800274B2B
S1130F3098472E7029002000254B98472000254B08
S1130F4098470136B6B20134A4B21E4B1D89A5429E
S1130F5008D9013DAC42F6D003232340DFD0012B56
S1130F60F1D8E0E701AE1C4B320013CB13C204AC42
S1130F704022FF212000154B9847019B049373687E
S1130F806360B368A3600123E37323730023637373
S1130F90A373013DEB17032018404519AD10E8B2C7
S1130FA0094B9847074D2889013880B22100084B26
S1130FB098472889013880B2064B9847074B9847D1
S1130FC014B070BDBC0000204D0C0000575100004F
S1130FD0D90D0000FD0D0000C4640000690C000080
S1130FE010B590B00C00154B1A781F23002A02D1BB
S1130FF0180010B010BD114B9A7A18238242F7D909
S1131000B0330E4AD35C002B03D08823D35C8342D5
S11310100CD00A4B1818C07A6946094B98473C22F1
S113102001A92000074B98470023E1E73C2203492C
S11310308C312000034B98470023D9E7BC000020E3
S1131040B50D00004551000010B5C823084AD35C13
S1131050002B01D1002010BD14008823D35CD318C9
S1131060D87A044B98470022C823E254F2E7C046DA
S1131070BC000020FD0D0000F0B5DE4657464E468C
S11310804546E0B587B0040000915A4B1B781F20F9
S1131090002B06D107B03CBC90469946A246AB460D
S11310A0F0BD544B9B7A0738A342F3D9C823514A65
S11310B0D35C002B05D08823D35CA34201D04E4BD4
S11310C098474C4B1B19DE7A032331009943494B53
S11310D05868B3011B5CFF2B47D0751CEDB204317B
S11310E0C9B2A94257D06B1CDBB2AA01125CFF2A19
S11310F03CD01D00F5E705AAD218567069E005AF8B
S1131100FF187D7063E0707802993C4B9847394C26
S113111021008831A8B23A4B98474B461B78E31814
S1131120DD720122C823E25401370236022F13D0A4
S113113087235A46D55CAD00ED19D047B1463378C4
S113114001998B42DFD188232A4AD1543C22009949
S113115003982C4B9847DAE7444640462A4B984775
S11311608723244AD454002094E73500214E882351
S1131170F45430008C303C220099224B98473100C3
S11311808831A8B21E4B98473419E5720122C8234E
S1131190F25400207EE7B30898461B02154A5268B1
S11311A0D31805AA1978117003218E4356703D3166
S11311B0595C9170711CD1708022985C4032995CAA
S11311C00023B51C033605AAD25C904297D08A420C
S11311D091D00233042BF6D105AE0027054B9B4674
S11311E0054B9A465B468833029304330393019478
S11311F09EE7C046BC00002049100000B50D000069
S1131200D90D0000455100004D0C0000F0B583B02D
S11312106B46DF1DD8710B4E0B4C012231002000B0
S11312200A4DA84780229201094B5A6101223900D4
S11312302000084B9847002231002000A84703B043
S1131240F0BDC046F0060020B4060020F91E0000E0
S113125000440041ED1F0000F0B591B0604B984789
S1131260604C2323237000236370A37002A901221E
S11312704A708B700A7023205B4B98472378D909F6
S11312800022002904D15A09D20158498C466244EB
S11312901F263340012529009940916102AC257035
S11312A000230393049323746374A574E574237572
S11312B02422A354183A002108A84D4B98478023B0
S11312C05B02E3604B4BA36201235B42E3624A4B44
S11312D023634A4B63634A4BA3614A4F22004A4942
S11312E038004A4B98473C682000494B98470640D1
S11312F0B540484B1D603A68D369002BFCD1236884
S113130002221343236001AC012363700022A27004
S1131310237021000D20344DA84721001720A84731
S113132000203D4B984736493C4B9847830018189A
S11313304000802212042D4B5A6100284AD0384BB9
S1131340586000229A601900802252020B681342EE
S1131350FCD080221204254B9A61314B5860002244
S11313609A601900802252020B681342FCD080223A
S113137012041E4B9A61A8202A4CA0471F20A047A4
S1131380D320A0470020A0474020A047A120A04789
S1131390C820A047DA20A0470220A0478120A04708
S11313A08F20A047A420A047A620A047D520A0476F
S11313B08020A0478D20A0471420A047DB20A04711
S11313C04020A047D920A047F120A047AF20A04744
S11313D011B0F0BD80221204044B9A61C7E7C046E5
S11313E075140000F0060020B91800000044004104
S11313F057510000030022000300360003003700A9
S113140040420F00B4060020001C0042211D0000D1
S1131410911C000000E100E0492B00003939000074
S113142010E000E00D120000F0B583B06B46DF1D44
S1131430D8710B4E0B4C0122310020000A4DA847F5
S113144080229201094B9A61012239002000084B45
S11314509847002231002000A84703B0F0BDC046E1
S1131460F0060020B4060020F91E000000440041EC
S1131470ED1F000070B50020084B98470500084C8C
S1131480FA218900A047074B186007492800A047A4
S1131490064B18600522064B1A6070BD492B0000EC
S11314A0393900000000002040420F0004000020F1
S11314B010E000E0014B18607047C046880100202E
S11314C0024B1B68C0011818425470478801002061
S11314D0024B1B68C0011818405C7047880100204B
S11314E0F8B5CE46474680B58418802C03DD8022AB
S11314F05242121AD2B2002A37D0CD08EC00091B8E
S113150001278F403900FFB2012B19D0002B30D0B6
S1131510022B2AD10138C6B29219D4B2204B994673
S1131520204B984621002800C8477840C2B20023C7
S113153021002800C047013CE4B2B442F2D114E0D7
S11315400138C6B29219D4B2154B9946154B984638
S113155021002800C8473843C2B2002321002800D4
S1131560C047013CE4B2B442F2D10CBC9046994667
S1131570F8BD0138C6B29219D4B2094B9946CF438B
S1131580084B984621002800C8473840C2B20023BF
S113159021002800C047013CE4B2B442F2D1E4E7A0
S11315A005180000FD160000F0B583B0009001920C
S11315B008AA1778002B0DD00139CEB29B19DCB2E2
S11315C0054D3B00019A21000098A847013CE4B274
S11315D0B442F6D103B0F0BDE1140000F0B5DE462C
S11315E057464E464546E0B585B00400884615008A
S11315F09B465B7A5A46127A0021009129004046A4
S1131600284EB0475B461B78002B06D005B03CBC87
S113161090469946A246AB46F0BD5B461A7AD3087B
S1131620520700D001335A46527A92465A46977A64
S1131630E71B524657435F43BFB25B465B689C4619
S1131640674402954346039320E06BB2002B0DDB05
S11316500134E4B26D00EDB2A6420DD04346E31A64
S11316604A461A42F1D13D780137EEE70122029948
S113167020000D4B9847EBE7029B0133DBB202934A
S11316805346013BDBB29A46002BBFD05B461E7A21
S1131690002EF1D04644F6B2039C00250723994658
S11316A0DCE7C046A91500009D170000F0B5C6464A
S11316B000B582B0040090461F000D00019109E0BE
S11316C07A7A01324244D3B29846019D0134237898
S11316D0002B0DD020780A28F2D00D28F6D03B003C
S11316E042462900044EB0473B7AED18EDB2EDE7CF
S11316F002B004BC9046F0BDDD150000F8B504004E
S11317000F001500002B03D10D4B9847A84215D0AC
S11317102A00390020000B4B98470F263440B02094
S11317202043094CA0477806400F10231843A047D4
S113173030003840A0472800044B9847F8BDC04605
S1131740D1140000C11400000D120000291400007F
S1131750F8B50D480D4B98470D4B984740200D4B5D
S11317609847002500260C4F340001233200210045
S11317702800B8470134E4B2802CF6D10135EDB22B
S1131780082DF1D1F8BDC0468C010020B51400002D
S1131790591200000D120000FD160000F0B5C646F7
S11317A000B50400150043B2002B01DB3F2902D928
S11317B004BC9046F0BDCF08FB00C91A01268E4038
S11317C0F3B29846010038000C4B98470200012DF3
S11317D009D0002D0BD0022D0CD00023210038009D
S11317E0074CA047E4E743460343DAB2F5E7B043C6
S11317F0C2B2F2E743464340DAB2EEE7D114000046
S1131800FD16000010B5014B984710BDD11400001F
S11318100C4B1B68002B06D1EFF31083002B07D071
S11318200022094B1A70074A13680133136070478A
S113183072B6BFF35F8F0022044B1A700132024B61
S11318401A70F0E78C050020900500201400002099
S1131850084B1A68013A1A601B68002B09D1064B21
S11318601B78002B05D00122044B1A70BFF35F8F45
S113187062B670478C0500209005002014000020FB
S1131880F0B583B001AC012565700027A770257001
S113189021001320064EB04780221203054B9A61A3
S11318A02770657021001C20B04703B0F0BDC0460E
S11318B0B91800000044004100B583B001AB802298
S11318C01A700A785A704A789A708A78DA7019000D
S11318D0014B984703B000BD592D0000F0B5DE461A
S11318E057464E464546E0B587B0804604911600FB
S11318F01F000022002300218B463F2401202100E9
S1131900009601975C4603944446059413E0202412
S1131910641A0500E540A84614E0009C019D121BD2
S1131920AB415C464D462C43A346039C45462C43A1
S11319300394013925D3202464420C19E7D405000B
S1131940A540A84604008C40A14692185B411400AF
S11319501D00059E4F463E40B446049E47463E4009
S1131960B246664657463E4303D00600264332003D
S11319702B00009C019D9D42DBD8CED19442D8D847
S1131980CBE7039B5846190007B03CBC90469946E8
S1131990A246AB46F0BD10B549084023002481425D
S11319A002D2180010BD1C00091A631C9BB28842A5
S11319B0F9D94023FF2CF4D814800023F1E7000068
S11319C0F0B583B00F00160008AA117804004C4348
S11319D04022BC4202D9100003B0F0BD002B14D148
S11319E0020008000021194CA04701003A0000231E
S11319F00020174CA04700220123121A8B41120C1D
S1131A001B041A4332800022E5E70022012BF9D19E
S1131A100A00002300210D4CA04702000B00009295
S1131A200193380000210A4CA047050080239B0144
S1131A3040229842CFD8790FF800009A019BA04722
S1131A40EA00821AD2B252032A43DBE7513A000079
S1131A50DD18000010B582B004000E4B1B78002B7B
S1131A6007D0002905D10B4B5B78834210D01D2091
S1131A700CE001A90C701320074B98471320074B67
S1131A809847044B5C7001221A70002002B010BD0C
S1131A900020FBE794050020612C0000D52B0000FA
S1131AA0404B984231D00AD93F4B98424DD03F4BDE
S1131AB098425AD03E4B984237D0002070473D4B55
S1131AC098420CD03C4B9842F7D1012917D00029F9
S1131AD05DD0022915D0032915D00020EEE7012995
S1131AE007D0002951D0022905D0032905D00020B0
S1131AF0E4E73248E2E73248E0E73248DEE73248DA
S1131B00DCE73248DAE73248D8E7012907D0002970
S1131B103FD0022905D0032905D00020CEE72D4867
S1131B20CCE72D48CAE72D48C8E7012907D000298A
S1131B3031D0022905D0032905D00020BEE728486A
S1131B40BCE72848BAE72848B8E7012907D00029A4
S1131B5023D0022905D0032905D00020AEE723486D
S1131B60ACE72348AAE72348A8E7012907D00029BE
S1131B7015D0022905D0032905D000209EE71E4870
S1131B809CE71E489AE71E4898E71E4896E70320FC
S1131B9094E71D4892E71D4890E71D488EE71D48CD
S1131BA08CE7C0460010004200180042001C0042AE
S1131BB00014004200080042000C0042030005002B
S1131BC003000600030007000300010003001E00D9
S1131BD003001F0002000D0002000E0002000F00AF
S1131BE003001100030012000300130005003F006E
S1131BF005003E0005005200030017000300180012
S1131C00030019000300040002000C00030010008C
S1131C10050053000300160030B587B00B4B6A462D
S1131C2032CB32C232CB32C2009B83420BD001236F
S1131C309A0069465258824206D00133062BF7D1E6
S1131C40002007B030BD0023D8B2FAE76467000073
S1131C5070470000F0B50A4B1B78002B0CD1094FDC
S1131C60094E0A4D0024DE515A1914600433182B0E
S1131C70F9D10122024B1A708000024BC150F0BD11
S1131C809605002098050020511C0000F406002051
S1131C9000B583B009236A461370013353700133CE
S1131CA093700133D3700133137101335371034BB8
S1131CB098476B46185603B000BDC046191C000077
S1131CC010B5024B1B680020984710BD98050020F2
S1131CD010B5024B5B680120984710BD98050020A1
S1131CE010B5024B9B680220984710BD9805002050
S1131CF010B5024BDB680320984710BD98050020FF
S1131D0010B5024B1B690420984710BD98050020AC
S1131D1010B5024B5B690520984710BD980500205B
S1131D20F0B58BB005000C00160029600B681C2070
S1131D309B0701D50BB0F0BD0B681738DB07F9D44E
S1131D400800604B9847604A116A871C0123BB4016
S1131D500B43136209A92427F35D0B701430C3B23B
S1131D6001931800594B98470198594B9847F05DD7
S1131D700021584B98473378012B38D02B000C3373
S1131D8029002831002204C38B42FCD10023EB62DA
S1131D90AB620024AB862B863633EC540133EC540F
S1131DA00133EC54353B6B722C712868454B9847D2
S1131DB007004949494B9847BF00494BFD502F68DC
S1131DC004AB80221A705C707F3A9A70DC703378AE
S1131DD0002B02D1002204AB9A70B36A0593F36A14
S1131DE00693336B0793736B089300240BE023680B
S1131DF00C2213432360C1E738003A4B98470AE0AA
S1131E000134042C10D0E1B2A30002AA0C20121851
S1131E10D0580028F0D0431CF2D004A90870000C5C
S1131E20C0B2314B9847EBE733786B71337CAB71BD
S1131E30B37CEB71337D2B72002202ABDA803378F2
S1131E40012B28D07368B2681343F2681343317CC2
S1131E50727C002A03D1254A9278920701D5802208
S1131E601343B27C002A02D0802292021143F27CF6
S1131E70002A02D0802292001143327D002A02D02F
S1131E808022920111433A6813433B607B680B4301
S1131E907B6000204EE728680A4B98471430C0B294
S1131EA0134B9847010002AB9A1DB069114B984738
S1131EB003001720002B00D03CE702AB06331B784D
S1131EC03B73BFE7191C000000040040612C0000B4
S1131ED0D52B0000551A0000B9200000551C000045
S1131EE0F4060020A11A0000592D00000020004132
S1131EF07D2C00009719000010B544791523012C9E
S1131F0001D0180010BD047A0023002CF9D1002A56
S1131F1058D04B78002B44D003681B7EDB0710D4C9
S1131F200A78D1090023002904D15309DB012E4981
S1131F308C4663441F21114001228A409A61052383
S1131F40DFE70A78D4090023002C04D15309DB010C
S1131F50254CA44663441F2414400122A2405A6124
S1131F6003681A7ED20701D58A789A62C27900235F
S1131F70002AC6D102680421137E0B42FCD0117ED4
S1131F8000234907BDD5538B5B0701D50423538335
S1131F908379012B02D0936A0023B2E7936A00236A
S1131FA0AFE70A78D1090023002904D15309DB01E2
S1131FB00D498C4663441F21114001228A405A6115
S1131FC000239EE70A78D1090023002904D153098C
S1131FD0DB0105498C4663441F21114001228A40DC
S1131FE09A6100238DE7C04600440041F0B5DE4607
S1131FF057464E464546E0B583B08A463823C45C0E
S1132000333B052C02D01233002A4BD1180003B005
S11320103CBC90469946A246AB46F0BD0237BFB2DF
S113202041465346595C09025B460B4318E08379E9
S1132030012B2AD0936A013EB6B2664527D00268C6
S1132040137E2342FCD07B1C9BB298465346DB5D37
S11320509B4681790129E1D06946CB80CB884746EC
S1132060117E214202D0DB05DB0D9362C379002B84
S1132070E1D00268137E2B42FCD0137E2B42DAD0CF
S1132080538B2B42D3D05583D1E7936AD3E742795C
S11320900023012ABAD1016801320B7E1342FCD01D
S11320A00023B3E7013A96B2002701240425014B2B
S11320B09C46C4E7FFFF0000F8B58000704BC4588D
S11320C026683723E75C3622A25C1740337EB57D51
S11320D01D40EB0702D56379012B1ED06B0711D588
S11320E0738B5B075AD5637A012B08D01E223823E1
S11320F0E254353B6372023333753B074AD4B36A07
S113210004237383AB0703D56379012B00D197E0D4
S11321106DB2002D00DAA9E0F8BD637A002B22D05D
S1132120637A002BDAD02168E26A1378DBB2501CA0
S1132130E062A079012827D09BB2DB05DB0D8B621E
S1132140A38E013B9BB2A386A38E9BB2002BC5D169
S113215001333375637A012BC0D1E379002BBDD1F0
S11321600233B375BAE7474B1B88B362638E013BF6
S11321709BB26386638E9BB2002B01D1013333750E
S11321806379012BCCD0A9E75078000203430232D3
S1132190E262D2E72000A3699847B0E7637A012B93
S11321A028D023689B6ADB05DB0DDAB2A16A0A70CA
S11321B0A26A511CA162A179012934D0238E013B6A
S11321C09BB22386238E9BB2002B00D09AE7002279
S11321D03833E254343B3375637A022B29D0637A63
S11321E0002B00D08EE7BB0700D48BE720002369C7
S11321F0984787E723689B6A638E013B9BB263869B
S1132200638E9BB2002B00D07CE70433337500222D
S11322103433E254353B6372FB0700D472E7200089
S1132220E36898476EE71B0A5370A36A0133A362FD
S1132230C4E77B0700D465E720006369984761E73A
S1132240637A012B00D063E7E379002B00D05FE7CA
S1132250023333750133637200223533E254FB07D2
S113226000D455E72000E368984751E7802333758D
S113227033767B0600D44FE7636A200098474BE728
S1132280F40600200C070020F0B5DE4657464E4603
S11322904546E0B591B005000C0016002960080021
S11322A0BC4B9847020023680520DB0706D511B014
S11322B03CBC90469946A246AB46F0BD2368173015
S11322C09B07F4D4B449086A971C0123BB40034319
S11322D00B620FA92D27F35D0B701432D3B2029356
S11322E01800AE4B98470298AD4B9847F05D00211B
S11322F0AC4B9847F37A6B712423F35CAB712523C1
S1132300F35CEB71F37E2B72337F6B722B68984610
S11323101800A04B9847143000220E2306A98C46BF
S113232063441A80328A02928023DB019A4200D1EC
S11323309EE00FD9C023DB01029A9A4200D192E0B9
S113234080231B029A4200D01FE10323069300233B
S1132350079308E080239B019A4200D015E11023E3
S113236006930F3B079333680593F36803937369EC
S11323700493337E9B462623F35C9A4673689946FE
S1132380002B00D1A0E080235B05994500D184E0B7
S1132390737E002B02D0B37E424693732A68029F59
S11323A0D369002BFCD10E3306AA944663441B88E0
S11323B042469381059B039A1343049A13434A4666
S11323C013431F435B461B021F4353465B071F43D4
S11323D02723F35C002B01D104331F43737E9B023C
S11323E0327F52021343727F120213432422B25CDF
S11323F0520413432522B25C12041343B17AF27AD5
S1132400114319433389FF2B00D181E08022520408
S1132410174319432C23F35C002B03D1624B9B78A5
S11324209B0701D580231F432A68D369002BFCD165
S1132430434659602A68D369002BFCD143461F6088
S11324400EAB80221A7000225A70DA709A70336BC5
S11324500A93736B0B93B36B0C93F36B02930D930F
S113246000270AAE63E008230693073B07937AE745
S113247033680593F368039373690493337E9B462F
S11324802623F35C9A4673689946002B18D0802360
S11324905B05994501D0002025E02723F35C002B40
S11324A000D075E7336A1F00C0B2404B9847010063
S11324B00E2206AB9C46624438003D4B984712E01E
S11324C008230693002307932723F35C002B0ED0E5
S11324D0069B0093079B0E2206A98C466244B16AB0
S11324E0306A344FB847002800D0E0E650E7336A3A
S11324F01F00C0B22D4B98470100069B0093079B19
S11325000E2206A88446624438002A4FB847EAE7F8
S1132510F37E002B00D17DE78023DB041F4379E7A2
S11325202000254B984707E00137042F0DD0F9B25E
S1132530BB0098590028F3D0431CF5D00EA90870AD
S1132540000CC0B21D4B9847EEE70023EB602B61F3
S11325506B61AB61EB612B62AB626B620022EB855A
S1132560AB853033EA540133EA540133EA5401337E
S1132570EA542868074B984704001149114B9847BF
S1132580A400114BE550002091E61023069300238C
S11325900793E8E6191C000000040040612C0000C9
S11325A0D52B0000551A0000002000417D2C0000AE
S11325B097190000C1190000A11A0000592D00004C
S11325C069260000551C0000F4060020C2791C2373
S11325D0002A01D118007047C28D92B2173B002A1D
S11325E0F8D10368DA69002AFCD1198502211A7E20
S11325F00A42FCD00023EDE782791C23002A01D192
S113260018007047828D92B2173B002AF8D10268F5
S1132610107E4007F4D5D369002BFCD1538BDBB279
S113262098061DD0980703D5022353831833E7E790
S1132630580703D5042353831A33E1E7D80703D596
S1132640012353831233DBE7D80603D510235383C6
S11326503233D5E79B0603D5202353832133CFE7B9
S1132660138D0B800023CBE7F8B58000624BC5586F
S11326702C68E369002BFCD1237EA67D1E40302309
S1132680EB5C3122AF5C1F40F30722D5EB8D9BB28C
S1132690002B1CD0AA6A1378DBB2511CA962697999
S11326A001290ED09BB2DB05DB0D2385EB8D013BAD
S11326B09BB2EB85002B0CD1013323750133A37539
S11326C007E0517809020B430232AA62EBE70123C7
S11326D02375B30706D50223237500223133EA5448
S11326E0FB071AD4730765D5AB8D9BB2002B5FD063
S11326F0638BDBB21A0714D43F221340002B34D06F
S11327009A0711D51A223223EA54303B63837B079C
S113271050D528006B6998474CE02800EB6898472F
S1132720E0E737221340E9E75A0705D51E22322392
S1132730EA542E3B6383EAE7DA0705D513223223F2
S1132740EA54313B6383E2E7DA0605D542223223B9
S1132750EA54223B6383DAE720221A42D7D021329B
S11327603223EA54123B6383D1E7238DDB05DB0D6F
S1132770DAB2696A0A706A6A511C69626979012964
S113278010D0AB8D013B9BB2AB85002B12D104332F
S1132790237500222E33EA54BB070BD528002B697E
S11327A0984707E01B0A53706B6A01336B62E8E7D2
S11327B004232375F30604D5102323752376FB061F
S11327C00ED4B30604D52023237523763B070BD4FC
S11327D0330704D5082323752376BB0608D4F8BD34
S11327E02800EB699847ECE72800AB699847EFE7C6
S11327F02B6A28009847F2E7F406002010B5082851
S113280003D880001B4B1B589F46002030E01A4B16
S113281018692DE0194B1B6A9B059B0F1848D8407B
S113282026E0154B586923E0134B1B6800209B07D7
S11328301ED512491022CB681A42FCD00E4B1B68DD
S11328405B0701D40F4813E000200F4B98470A4B55
S11328509B681B041B0C58430AE05023074AD35CB3
S113286000205B0704D5044BD86801E080200002F7
S113287010BDC0467C670000B00500200008004081
S113288000127A00006CDC027D2C000070B50C494B
S11328900B6A047885784078012210408001402634
S11328A0B34303432A40D2018020834313430322CA
S11328B0224012020348034013430B6270BDC0461A
S11328C000080040FFFCFFFF082803D88000254BC8
S11328D01B589F46172044E0234A136A02210B43E6
S11328E0136200203DE0204A936902210B43936167
S11328F0002036E01C4A138A02210B431382002075
S11329002FE0194A938A02210B439382002028E086
S113291016490B68022213430B60134B9A84190067
S11329200E32CB681A42FCD0104A91680E4BD96221
S113293052689A6200229A8419001032CB681A42B3
S1132940FCD00A4B1B689BB2074A9384002008E022
S1132950054944228B5C022003438B54002000E091
S113296000207047A067000000080040B005002068
S1132970F0B5C64600B584B0C222D200214B9A609D
S1132980214A53681E218B43536001236A46137006
S113299000241E4DE0B26946A8470134252CF9D124
S11329A003A8002444700123984683700470184BD4
S11329B098470620174B9847174B98476B465C700F
S11329C006271F701C725C72102301936946032052
S11329D0124EB0470320124DA847124B1C725C7272
S11329E09C72DC72434601936B465C701F701C72D0
S11329F05C7269460020B0470020A84704B004BCBC
S1132A009046F0BD0008004000400041612C0000E9
S1132A108D280000C9280000292A00004D2A000042
S1132A20052B000000040040064A936908210B436B
S1132A3093610122044B1A7019000B781342FCD1E4
S1132A407047C04600040040000C004070B506000A
S1132A5004000D782D0205434B78002B02D080230F
S1132A60DB021D434B7A002B02D080231B031D4342
S1132A704868012810D9431E184234D1022830D99D
S1132A800223002201325B009842FBD81202324337
S1132A90140080235B031D430B7A002B02D0802398
S1132AA09B031D43134A53785BB2002BFBDB124B91
S1132AB09847124B1E700F4A53785BB2002BFBDB16
S1132AC00C4B9C601A0053785BB2002BFBDB094A69
S1132AD05368802149020B401D435560084B9847B9
S1132AE070BD0022D2E70402344380239B021D43BD
S1132AF0D2E7C046000C004011180000080C00404A
S1132B005118000010B504000B4A53785BB2002B37
S1132B10FBDB0A4B98470A4B1C70074A53785BB29D
S1132B20002BFBDB044A516880235B020B43536098
S1132B30044B984710BDC046000C0040111800001B
S1132B40040C00405118000070B504001A4A537870
S1132B505BB2002BFBDB194B9847194B1C70164AD0
S1132B6053785BB2002BFBDB134E7068C004C00EBD
S1132B70144B98470500124B1C707668F602F60F4A
S1132B80114B1C700C4A53785BB2002BFBDB0A4BD5
S1132B909C682402240C0D4B9847002E07D1012C6D
S1132BA007D9210028000A4B9847050001E00134A9
S1132BB0E540280070BDC046000C0040111800001C
S1132BC0040C0040FD270000080C004051180000D0
S1132BD03939000010B50400064B9847064B1C70A9
S1132BE0064A53888021C9010B435380044B9847FC
S1132BF010BDC04611180000020C0040000C00403B
S1132C005118000010B504000F4B98470F4B1C706F
S1132C100F4A53881B05180F53880E490B405380E5
S1132C2053880D490B40538011008022D2014B88F8
S1132C301342FCD106494A88030206480240134362
S1132C404B80064B984710BD11180000020C004041
S1132C50000C0040FFF0FFFFFFBFFFFF5118000012
S1132C6010B50C7824020443024B9847A4B2024BDB
S1132C705C8010BD052C0000000C004010B5040061
S1132C80064B9847064B1C70064B5C882405240FA2
S1132C90054B98472000054B984710BD11180000BC
S1132CA0020C0040000C004051180000492B0000A9
S1132CB030B5D378002B35D11378802B29D01B065F
S1132CC080246402234354780225AC4306D19478CB
S1132CD0002C20D18024A402234341605478013C79
S1132CE0012C1CD90D042D0CA024E4052C431C43F9
S1132CF084620D0CD02424062C431C438462D478B3
S1132D00002C22D15B031CD59378012B1ED041618A
S1132D1017E00023D7E7C024E4022343DDE70D4C8A
S1132D202340DFE741600C04240CA023DB0523438C
S1132D3083620C0CD0231B0623438362D378002BBD
S1132D4003D15378013B012B02D930BD8161F8E7EF
S1132D508160FAE7FFFFFBFF10B50A00C1090023F9
S1132D60002904D14309DB0105498C4663441F242F
S1132D702040012181401800024B984710BDC046F5
S1132D8000440041B12C00007047000010B5054B11
S1132D909847054B9847054B9847054B9847054B73
S1132DA0984710BD7129000081180000892D00008A
S1132DB065050000892D0000FEE70000F8B52A4AE9
S1132DC02A4B9A4211D01A00294B9A420DD2294A11
S1132DD003339B1A9B0801339B000022234822499A
S1132DE08C58845004329A42FAD1234A234B9A4293
S1132DF00AD2D34321495B1803218B4304339B1824
S1132E00002102C29342FCD11D4AFF211D4B8B437A
S1132E109360FD3990235B001B4AD1501B4AD37841
S1132E200325AB4302242343D370D3780C27BB433D
S1132E3008263343D370164B987B302290432022CC
S1132E4010439873997BB943314399739A7BAA438E
S1132E5022439A730F4A536880210B4353600E4BED
S1132E6098470E4B9847FEE7286B000000000020AF
S1132E709800002004000020980000202C08002066
S1132E8000ED00E00000000000700041005000412F
S1132E900048004100400041C5500000FD370000DB
S1132EA00300064A1268002A04D0044A1068C318B2
S1132EB0136070470249014A1160F6E7C805002013
S1132EC03028002001204042704780239B014B6042
S1132ED000207047012070470020704743684B6012
S1132EE09A688A609A68516099600861036801333E
S1132EF00360704703694268816891608268416831
S1132F0051605A68904205D0002202611A68501E2E
S1132F101860704782685A60F6E77047EFF31080D4
S1132F2072B67047002080F310887047EFF3098071
S1132F300E4B1A6820381060F0C044464D46564681
S1132F405F46F0C008B572B600F0D2F862B60CBCA9
S1132F50116808681030F0C8A046A946B246BB46BE
S1132F6080F309882038F0C81847C046CC050020F3
S1132F7010B5074B98470400064B9847002803D028
S1132F8080225205044B1A602000044B984710BD60
S1132F901D2F0000CD2F000004ED00E0272F0000BE
S1132FA0084B1B681B68002B07D0064B1B68DB68AB
S1132FB0DB685A68044B1A60704701225242024B84
S1132FC01A60F9E7D005002018000020F0B583B09E
S1132FD0394B1B68002B61D1384B1A6801321A60D7
S1132FE01E68002E12D1364B1B681B68002B01D0C3
S1132FF072B6FEE7324A1168324B186810601960E5
S1133000314A136801331360304B9847304B1B68C7
S113301000249E4233D30024294F3B681B68002BB5
S113302029D0274B1B68DB68DD686B689E4232D36E
S11330302B1D01931800274B9847AB6A002B03D034
S113304028001830234B9847EB6A234A12689342AE
S113305001D9214A13609800C01880001F4B18182A
S113306001991F4B98471F4B1B68EA6ADB6A9A4217
S1133070D3D30124D1E701225242154B1A60194BD4
S11330801B68DA6A93009B189B00144A9B58012B17
S113309009D9012407E00E4A1360F0E7124A1368C5
S11330A0013313600024114B1B68002B00D0012452
S11330B0200003B0F0BDC046400600204C060020AE
S11330C0D0050020D405002048060020A12F0000D0
S11330D018000020F52E000044060020D80500202A
S11330E0DD2E0000CC0500203C0600205006002008
S11330F010B5264B1B68002B21D10022244B1A60EB
S1133100244B1A6893009B189B00234A9B58002B5E
S113311019D1204B1B68002B0FD01E4A1E4C1000E7
S11331201368013B136011688B005B189B001B59EB
S1133130002B08D10368002BF2D172B6FEE70122FE
S1133140134B1A6010BD134B1A6813489300991857
S1133150890041184C6864684C609B189B000833D4
S1133160C3189C4209D093009A1892000A4B9A18EB
S11331705368DA68094B1A60E4E7606893009B18A7
S11331809B000549CB185860EDE7C0464006002077
S11331905006002044060020D8050020CC0500205D
S11331A070B5802212032C4BDA612C4B1868437ED5
S11331B05BB2002BFBDB037B022213430373437ECE
S11331C05BB2002BFBDB01210425022401E0114248
S11331D00AD1037EDBB20A001A401D4200D022430A
S11331E01C42F4D02A43F2E7437E5BB2002BFBDBA4
S11331F0418B89B21A4B198001230376027ED2B225
S11332001340540701D502242343920701D5042215
S113321013435B0701D5022303761248124B9847E8
S11332200F4B1888114B9847114B9847114C124A71
S1133230124BA0470022124BA047124A124B134CC8
S1133240A047134B9847134B18701348134B9847D8
S11332500122134B1A6070BD004400412008002075
S11332601C080020F068000069510000E13A0000E9
S1133270694D0000D54100006666666666660A40D0
S11332800000303F7B14AE47E17A843F6D3B000081
S1133290A53A000033000020006900005D520000E0
S11332A05406002010B51448144B9847144B1A7850
S11332B0144B1B78934206D3134B1B78934204D9C7
S11332C0114B1A7001E00F4B1A7010490B789B18C0
S11332D05B080B700E490A704B700A4B1B788B709D
S11332E0094B1B78CB7000200A4B98470A4B984730
S11332F001220A4B1A6010BD846800005D52000070
S11333003300002030000020320000203100002073
S113331054070020791000004910000054060020D2
S113332010B50D480D4B984700230D4A13700D4AF4
S11333301370FF220C490A700C490B700C490B7076
S11333404B708B70CA7000200A4B98470A4B984701
S113335001220A4B1A6010BDC46800005D520000CF
S11333603300002030000020320000203100002013
S11333705407002079100000491000005406002072
S1133380F8B53548354B9847354B1B78012B33D06E
S1133390002B21D0022B3FD0032B4DD0314E0023E4
S11333A03360314F3B60314D2B0000220021304807
S11333B0304CA047362333602C3B3B602B000A2261
S11333C036212D48A0473A7831782B002B48A04766
S11333D001222B4B1A60F8BD14222A4924482A4B97
S11333E098472A4C20780A222449294B9847217867
S11333F02848294B9847D1E7142228491C48224BD6
S11334009847274C20780A221C49214B9847217859
S11334102448214B9847C1E71422234914481A4BE6
S11334209847224C20780A221449194B984721784E
S11334301F48194B9847B1E714221E490C48124BF8
S113344098471D4C20780A220C49114B9847217843
S11334501A48114B9847A1E71C6900005D5200000F
S1133460500700201807002018080020080000203A
S113347090070020AD1600001C000020E407002087
S113348054060020786900004551000033000020F4
S11334903D51000038690000695100008C6900004A
S11334A03100002048690000A069000030000020BD
S11334B058690000B4690000320000206869000007
S11334C070B582B005000E0000226B46DA80064C0F
S11334D06B46991D2800A0470028F9D16B46063396
S11334E01B88337002B070BDF925000070B505006B
S11334F08CB2034E21002800B0470028FAD170BDD9
S1133500CD25000010B5084B9847162802D0002896
S113351001D110BDFEE70548054B9847054B984778
S1133520014B9847F5E7C0461D0E0000B068000047
S11335305D520000010F000010B5074B9B685B054E
S113354000D410BD044A91688023DB000B439360D0
S1133550024B9847F5E7C0460008004049100000B8
S113356010B584B000236A46D3700393A022D2001E
S113357069460A806A468B7001330B71FA239B00FB
S11335800293054C05492000054B98472000054B44
S1133590984704B010BDC046100700200014004036
S11335A0A1060000D905000010B58CB06846104B88
S11335B0984700236A461371183313730D4C0E4950
S11335C020000E4B98472268537E5BB2002BFBDB36
S11335D00F2393751376137802210B431370054B55
S11335E01A68537E5BB2002BFBDB0CB010BDC046E7
S11335F01501000020080020004000425D01000089
S1133600F0B583B0334B9847FA21C9003248334BA5
S11336109847334B984700246B469C70314B80226B
S1133620D2029A61802212039A61802252059A6121
S113363002276B461F705C70694612202A4DA8470A
S113364069461320A84769461C20A8476B461C708E
S113365001265E7069461620A84769460620A847D9
S113366069460720A847214B9847214B1C70214BE2
S113367098476B461C805C809E71DE7110236A46FD
S1133680137120335371694600201B4B98471B4B21
S11336905A6B3A435A6359688022D2000A435A60EB
S11336A0174B1F60174C21000020174B98472278B6
S11336B0164B1A706278164B1A70A278154B1A7052
S11336C0E278154B1A701548154B9847154B1E6038
S11336D003B0F0BD61350000100700208107000031
S11336E0A935000000440041B9180000511700003A
S11336F05007002005350000E908000000080040DC
S113370000E100E054070020E10F00003300002036
S1133710310000203000002032000020DC6800006E
S11337205D5200005406002082B06B460022DA800D
S113373006331B889BB2084A93420AD86B469A1DEB
S11337400549138801339BB2138013889BB28B42C3
S1133750F7D902B07047C0462F75000010B500219C
S11337601F48204B984700280FD11F4B1B6A5B0250
S113377013D51D4B1B6A1B061FD51B4B1B6A5B060F
S113378027D50022194B1A6010BD00211448184B8C
S113379098470122154B1A60F6E716480378013B57
S11337A0D917890F5B18032213405B1A0370013A7F
S11337B00E4B1A60104B9847E6E70E490A7801321F
S11337C0032313400B700222084B1A600A4B9847DC
S11337D0DAE70322054B1A60074B9847D4E7C04643
S11337E010070020A50700000044004154060020F3
S11337F0D10700005007002029370000F8B53A4BE4
S113380098473A4A8023DB05136000235360FF2165
S1133810118100219372D3729620800110620124D9
S1133820242014540130145401301354013013541F
S11338309362053013540130135453611382D376C9
S113384011761177517613239376517780235B0396
S1133850D360274B1363274B536301235B4293636A
S1133860D363254D254B1D602549264B19602649F8
S1133870264B196026492800264B9847264F3B685B
S113388098680021254EB0473B6858680021B0472E
S11338902E683000224B98471F2318408440214B48
S11338A01C602B68DA69002AFCD1336802321343A6
S11338B033601D481D4B984700231D4F1D4E3D008E
S11338C006E0A4001B4B1B68E418E4002C192379C0
S11338D01C009B00326894466344DB00DB59002BD8
S11338E0EFD09847EDE7C0468D2D0000A4070020D7
S11338F003000400030005001C070020AC060020A0
S1133900ED340000A8060020C1340000A406002005
S11339100008004289220000340000207152000097
S1133920911C000000E100E0146900005D520000F9
S1133930C467000054060020002243088B4274D35D
S113394003098B425FD3030A8B4244D3030B8B429C
S113395028D3030C8B420DD3FF22090212BA030CA5
S11339608B4202D31212090265D0030B8B4219D386
S113397000E0090AC30B8B4201D3CB03C01A5241A6
S1133980830B8B4201D38B03C01A5241430B8B42EE
S113399001D34B03C01A5241030B8B4201D30B03D7
S11339A0C01A5241C30A8B4201D3CB02C01A5241FE
S11339B0830A8B4201D38B02C01A5241430A8B42C1
S11339C001D34B02C01A5241030A8B4201D30B02AA
S11339D0C01A5241CDD2C3098B4201D3CB01C01AC4
S11339E0524183098B4201D38B01C01A52414309CE
S11339F08B4201D34B01C01A524103098B4201D3BC
S1133A000B01C01A5241C3088B4201D3CB00C01A28
S1133A10524183088B4201D38B00C01A52414308A0
S1133A208B4201D34B00C01A5241411A00D20146C5
S1133A30524110467047FFE701B5002000F006F838
S1133A4002BDC0460029F7D076E770477047C046EC
S1133A50F0B5CE46474615042D0C2E0080B507045C
S1133A60140C3F0C9946030C7E435D436743634348
S1133A707F19340CE4199C46A54203D980235B02C8
S1133A809846C4444B46514343433604360C250CF4
S1133A9024046544A4195918491920000CBC904603
S1133AA09946F0BD70B500220C4B04000D0001F0E6
S1133AB0E1F9002804D12000290001F021F970BDAA
S1133AC0064B00222000290000F004FE01F018F942
S1133AD080231B069C466044F1E7C0460000E04199
S1133AE010B5041E27D001F0CFF99E231B1A962B84
S1133AF00ADC9622D21A94406402640ADBB264029D
S1133B00DB05600A184310BD992B17DC9922D21AE1
S1133B10002A27DD94402200134C1440510704D09E
S1133B200F210A40042A00D00434620112D4A401F3
S1133B30640ADBB2E3E700230024E0E7B9222100B2
S1133B40D21A91400A00511E8A410521091ACC401B
S1133B501443DBE7044B1C409F23A4011B1A640A93
S1133B60DBB2CCE72200D7E7FFFFFFFBF0B55746F7
S1133B704546DE464E46E0B54C000E0387B083460C
S1133B8092461D008046360B640DCF0F002C4FD09B
S1133B906F4B9C4235D08023420F1B04F600134325
S1133BA033439946C30098466A4B00269C4600233B
S1133BB0644403932B031B0B9B466B00ED0F504691
S1133BC05B0D01955ED0624A934253D05A46D100B0
S1133BD08022400F120402430A4393465246D10006
S1133BE05C4A94460022634438006840844602904C
S1133BF0E41A16430F2E00D9B4E0574BB6009B5974
S1133C009F460300334399466CD100239846023300
S1133C1008260393CEE7CB464146039A0197022A2E
S1133C2065D1019B4A4C9C460023002298466BE0D8
S1133C300300334399464ED0002E00D1BCE130003E
S1133C4001F022F903000B3B1C2B00DDACE11D222B
S1133C50D31A5A460100DA4008398E401300334320
S1133C6099465B468B40984600233C4C0026241A18
S1133C7003939FE751465A46114329D100229346A4
S1133C800232B1E7594601431ED05B46002B00D1F6
S1133C909EE1584601F0F8F803000B3B1C2B00DDB5
S1133CA08FE102005946083A91408B461D21CB1AF8
S1133CB05146D9400B0059460B4351469B4691400F
S1133CC0264B00221B1A8FE7002301229B468BE719
S1133CD05146032288E70023984601330426002432
S1133CE0039367E70323B14603930C2662E7032A91
S1133CF000D15CE2019B012A00D0E4E113409C4620
S1133D00002300240022984600211203130B0A0DFD
S1133D1012051A432305124C4046224013436246BF
S1133D205B00D2075B081343190007B03CBC904604
S1133D309946A246AB46F0BD002380229C4612035E
S1133D409846034CE0E70023014C00229846DBE749
S1133D50FF07000001FCFFFFC86900000DFCFFFF26
S1133D60FFFF0F80D94500D939E100D134E10023A8
S1133D7046464D469A46013C5B460A0E1B021A43D0
S1133D800B02170C039313041B0C390028009046F4
S1133D900193FFF7D1FD0200019B83465A4328009B
S1133DA039009146FFF74EFE350C09040D43A94531
S1133DB00DD95B464544013BA84500D93AE1A945E4
S1133DC000D837E102235B429C464544E3444B461A
S1133DD0EB1A390018000493FFF7AEFD019B0500B0
S1133DE04343390004989946FFF72CFE3304090431
S1133DF01B0C0B43994509D943446A1E984500D9C5
S1133E001AE1994500D817E1023D43444A469B1AFA
S1133E105A4612042A4303999346100C0A0C9146FD
S1133E2009045A46090C4E460D001204120C45436F
S1133E30059151437243704352190E0CB2189542C6
S1133E4003D980256D02AC466044150C09041204A4
S1133E50090C28185218834200D2CEE000D1C8E0E1
S1133E601D1A53469E1AB24592415242AB1A9A46C3
S1133E70984500D117E139001800FFF75DFD019B5B
S1133E8005004343390050460493FFF7DBFD0498D3
S1133E900B04310C1943884209D941446B1E8845EF
S1133EA000D907E1884200D804E1023D4144049B63
S1133EB0CB1A180039000493FFF73EFD019B82469C
S1133EC04343390004980193FFF7BCFD01980B04A8
S1133ED03104090C194388420DD953464144013B2E
S1133EE0884500D9E8E0884200D8E5E002235B4237
S1133EF09C464144E244019B2D04CE1A5146294379
S1133F00059D4F462A000B04080C1B0C5A434543DD
S1133F107B4378435B19170CFB189D4203D980251A
S1133F206D02AC4660441D0C12041B04120C2818CC
S1133F309B18864200D293E000D18EE001231943FE
S1133F40A04BE318002B00DC99E04A0700D09EE068
S1133F505A46D20106D55A469B4B1A4080239346B3
S1133F60DB00E318994A934268DD0123029A984CD6
S1133F701A400023944698460022C5E680224B4608
S1133F80120313420AD05B46134206D11A431203AA
S1133F90120BAC4688468E4CB6E64B461A431203C7
S1133FA0120BBC468A4CAFE603005A46283B9A40A3
S1133FB000239146984657E6584600F065FF2030A6
S1133FC040E603005246283B9A400021934677E698
S1133FD000F05AFF20305FE6884500D2C7E64B4622
S1133FE0DE075D0843465B081E434346DB079A46EB
S1133FF0C2E60025924500D333E7039E5946B446F2
S1134000E244B245AD416D424544EB18013998454F
S113401007D2984200D97FE000D1BCE01D1A8B463C
S11340201FE79845FAD1039D5545F2D943468B467F
S11340301D1A16E79B46CAE61500E7E65A46C90864
S113404052070A435B0590465C0D5A4601230299C8
S113405052021940120B8C4656E6002B00D16FE732
S113406046444A1EB04529D91100864200D065E76E
S1134070039A934200D061E762E70121494201209B
S1134080C21A382A21DD029B03409C4638E60F22DF
S11340900A40042A00D15BE70A00111D91429241B3
S11340A05242934454E7474BE318002BE5DD0122C9
S11340B05242F2E71D00FAE69A461CE7B04239D8AC
S11340C06ED011003AE702933AE71F2A3CDC202322
S11340D09B1A0C005846994098404B1E99415B46E8
S11340E0D440D340204308431A00430709D00F2388
S11340F00340042B05D00100081D88429B415B420C
S1134100D21813023AD50123029A01241A4000233B
S1134110944698460022F7E5022149428C46039DC5
S1134120E344AC46E244AA45AD416D424544ED1832
S11341302D1A96E68A1E03994D008D428941494203
S11341404144761803958FE71F204042C31A58460E
S1134150D8400300202A28D040205D46821A95408A
S113416029434A1E91411943072300220B4009D0D9
S11341700F2300220B400800042BBDD1010053077C
S11341805202120BC90819430123884602990024DC
S113419019408C46B8E55245BED88B46002560E6EA
S11341A0039D9D42C6D3110062E70025D8E7802213
S11341B05B4612031A43019B1203120B9C4688466A
S11341C0034CA1E5FF030000FFFFFFFEFE07000014
S11341D0FF070000F0B557464546DE464E46E0B5BB
S11341E00C0398464E00230B87B0070092469B466B
S11341F0760DCD0F002E6BD06D4B9E4235D08024B2
S11342005B46420F2404DB0014431C43C30099465D
S1134210684BA3469C46002300276644029343460A
S11342201C035A00DB0F5046240B520D984600D154
S113423076E05F4B9A426DD08023410F1B040B4301
S11342405C49E4008C461C43C300002062444146A0
S1134250B6186940721C0191944607430F2F00D988
S1134260B0E0554ABF00D25997465B46034399468E
S113427000D087E000239B46023308270293CEE751
S113428042460192022867D0032800D10EE2012899
S113429000D062E1002300240022994601990140E4
S11342A0CDB2002112030B0D120B1B051343434A1D
S11342B0240513401C436400ED0764082C4348465E
S11342C0210007B03CBC90469946A246AB46F0BDDF
S11342D0034399464FD05B46002B00D189E15846F1
S11342E000F0D2FD03000B3B1C2B00DD7AE11D2204
S11342F0D31A3A0001005C46DA4008398C401300B6
S11343008F4023439B46B94600232D4E0027361A7F
S1134310029384E7534623432AD10024022096E7DC
S11343205346234320D0002C00D157E1200000F055
S1134330ABFD03000B3B1C2B00DD49E11D21CB1A17
S113434051460200D9405346083A944093400C43E6
S11343501B4A121A00207AE70125019B144C1D40C8
S11343600023002299469CE70024002201206EE7E6
S1134370534603206BE700239B46013304270026A2
S113438002934CE7032381460C27029347E78022DC
S11343900023002512039946054C82E75C464B46F0
S11343A002986FE75C464B46019502986AE7C0465F
S11343B0FF07000001FCFFFF086A0000FFFF0F80F9
S11343C00DFCFFFF4A464946170C1A0C1B041B0C34
S11343D008041900000C41431500884619007D4368
S11343E07943039589462900150045434D440295B8
S11343F045462D0CAA46029D5544A94506D98A4630
S1134400802149028946CA4451460391290C0491EA
S1134410414609042D04090C88462900250C24046E
S11344204144240C059121004143884621007943ED
S11344308A466843414650448146080C48446F43C9
S1134440824503D98021490289464F44010C89469B
S113445039004944029141460F0404993F0C8846AF
S11344600004C01980444146049159460F0C0904C4
S1134470090C884659438A463900514389464146C6
S11344804A435146090C8B467B43D2185A44934203
S113449003D980235B029B46D94451460904090C85
S11344A08A46414661437C43130C12044B445244F4
S11344B0A1468A463C0041466C434D4351464D4417
S11344C00F0C7D19A94503D980214902884644442B
S11344D0049F0399B84641448B4683458041414239
S11344E08846514608042F04000C3F185846029988
S11344F010188946904292414F44BA465242994616
S11345009346C244D144CB448F42BF41C245894102
S113451099459B41934592417F4249422D0C524219
S11345200F435B4213437F19FF185B463C19DB0DB5
S1134530059A64021C43430213435D1EAB415A4671
S1134540C00D034352021343E20156D501205A0819
S113455003401343E207134364085A4860440028A5
S11345604DDD5A0709D00F221A40042A05D01A1D1E
S11345709A429B415B42E4181300E20104D5802077
S1134580514AC00014406044504A904200DDE3E6C2
S11345900125DB0862071A436402019B9146220B42
S11345A04405640D1D407CE68022594612031142E5
S11345B008D0144206D122431203120B45469946F1
S11345C0434C6EE65B461A431203120B404C68E6FA
S11345D003005446283B9C400023B9E600F054FCF9
S11345E02030A6E60300283B9F400023BB469946A3
S11345F08AE600F049FC203074E6B446ADE70125B4
S11346002A1A382A06DD019B00241D4000230022BB
S1134610994646E61F2A21DC20252000AD1A1E00FB
S1134620AB40A840D6405D1EAB4130431843D44054
S1134630430709D00F230340042B05D00300181DA2
S113464098429B415B42E418230221D50125019B3A
S113465001241D4000230022994622E61F25210043
S11346606D42281AC1400800202A1DD05F35AA1ABD
S1134670944023435C1EA341072503431D400022AD
S1134680002D09D00F2200241A401800042AD6D184
S1134690030065076402220BDB082B4301259946BE
S11346A0019B00241D40FCE50024E2E78022012553
S11346B01203224301991203120B0D409946044C34
S11346C0EFE5C046FF030000FFFFFFFEFE0700000A
S11346D0FF070000F0B54646D6464F460C03C0B56A
S11346E0CD0F4E00610A440F0C43C1005800400D29
S11346F084468A460F001903500F490A0143C648ED
S1134700760DA846DB0FD200844500D1D8E0012005
S11347104340AB4200D1A6E06046351A002D00DCD0
S113472005E1002810D10B00134300D1D7E06B1E24
S1134730002B00D04BE153469F1ABA458041641ABE
S11347404042241A01261EE0B34B9E4248D08023E7
S11347501B041943382D00DD19E11F2D00DD4CE148
S113476020230F005B1B10009A409F40E840531E1B
S11347709A41E940074317435346DF1B611ABA4580
S1134780A44164420C1B230200D4C5E06402650A00
S1134790002D00D1F6E0280000F076FB0300083B72
S11347A01F2B00DDE9E020223C00D21A9D40D440BA
S11347B09F4025439E4200DDDBE09E1B731C1F2BA4
S11347C000DD0AE120223800D21A290097402C008B
S11347D09140D8407A1E9741DC40002601430F43A4
S11347E07B0709D00F233B40042B05D03B1DBB4264
S11347F0BF417F42E4191F00230225D5864B0136B1
S11348009E4200D1AFE0854B01251C404346620720
S1134810FF08640276051743240B760D1D40002122
S11348202403230B0C0D7E4A24051C43144033053A
S113483023435B00ED075B082B43380019001CBCC5
S113484090469946A246F0BD012543466207FF08FB
S11348501743E4081D40704B9E4236D0240376056E
S1134860240B760DDBE76346F31A002B00DC94E09F
S11348706046002835D068488642B1D080273F047E
S11348803943382B00DCFDE00A43170000217A1E6F
S11348909741574457458041091944420C19230252
S11348A03AD55D4B01369E4200D14BE101225B4B70
S11348B01C407B0817401F43E207174364088FE737
S11348C00800104300D024E721E723003B4300D134
S11348D0B9E18022120314432403240B9FE72E0022
S11348E07EE70800104300D1CAE0581E8446002821
S11348F000D0E7E0524452458041641840422418F5
S113490017000126230207D50226CFE764462C436D
S113491000D1B3E12C0067467B0700D062E7630750
S1134920FF081F4301254346E4081D4093E7002D7B
S113493078D1751C6D056D0D012D00DCF2E050463B
S1134940801A8245BF41651A7F42ED1B84462802C6
S113495000D48CE05046171ABA4292410C1B5542BF
S1134960651B984614E70125434600241D40002793
S113497055E72A4CF61A2C4032E73D00283885408A
S1134980002717E7380000F07FFA203006E70A43D3
S1134990170000217A1E9741EEE6002B00D0E5E0D7
S11349A0731C9C465B055B0D012B00DC9FE01A4BDE
S11349B09C4500D1C5E052445245804164184042B0
S11349C02418E707520817436408664608E71248A4
S11349D0854200D185E01D00BCE629001F3EF14060
S11349E0202B00D17FE04022D31A9D402F437D1E0F
S11349F0AF4100240F4300268EE72B000F00203B1D
S1134A00DF40202D71D040235D1BA9400A43511E75
S1134A108A4100211743AFE6FF070000FFFF7FFF35
S1134A20FFFF0F80002E3ED0B34EB44545D0802604
S1134A3036046D423443382D00DDA8E01F2D00DD1F
S1134A401FE1202627005046761BB740E840074365
S1134A505046B040461EB041EC403843171ABA42A3
S1134A6092410C1B5242A41A664698468BE6644651
S1134A7067462C4300D08BE6002500260027EAE693
S1134A801E00ADE61F2B60DC2027F81A0F008446B9
S1134A9087401000D840074360468240501E824140
S1134AA0D9401743F5E626005046064305D0ED43AA
S1134AB0002DD3D0904EB445BDD10C0017006646EE
S1134AC098468DE68C4883420BD06346D9E6002D88
S1134AD000D096E00800104300D1E2E00C0017007B
S1134AE09846854E7CE6002580E700218EE723006A
S1134AF050460343002E00D0A8E0002B00D1DEE096
S1134B000B00134300D16BE65244524580416418B4
S1134B10404224181700230200D4FDE6774B664672
S1134B201C405DE6250050460543002ECFD1002DE4
S1134B304FD10C00144300D1A0E00C00170098469C
S1134B404EE666460024002785E61F000800203F45
S1134B50F8400700202B00D18EE04020C31A994072
S1134B600A43511E8A410021174392E6002E14D1B4
S1134B7026005046064362D0DB43002B5CD18718E5
S1134B809742924164185242A418664687E65046FA
S1134B902043441EA041002460E7574EB4454ED044
S1134BA0802636045B423443382B00DD7FE01F2B24
S1134BB000DD8BE0202627005046F61AB740D84087
S1134BC007435046B040461EB0410743DC40BF187F
S1134BD0D6E70D00154300D102E65046801A8245FF
S1134BE0BF41651A7F42ED1B8446280200D48DE63E
S1134BF05046171ABA4292410C1B5242A41A9846C4
S1134C00EEE50D00154300D16BE750466707C00879
S1134C1007438020E4080003044207D0CD0805427E
S1134C2004D12C009846D70849070F437B0FE400B2
S1134C301C43FF00304ED3E52F4EB445B4D10C00D5
S1134C4017006646CCE500270024E8E5002B39D0A0
S1134C500B00134300D144E7C008670707438020D3
S1134C60E40800030442E1D0CB080342DED1D708B4
S1134C7049070F431C00D9E7002171E700250027ED
S1134C80E9E52E002700203EF740202D2FD04026B6
S1134C90751BAC4050462043441EA04100243843B9
S1134CA0DCE6802400252403134E0027D3E5504678
S1134CB020430700781E87410024BF1860E70C00DA
S1134CC017008DE50C0017000B4E89E51E00270028
S1134CD0203EF740202B0CD04026F31A9C4050462F
S1134CE02043441EA04107430024BF1848E7002482
S1134CF0D0E70024F3E7C046FF070000FFFF7FFF73
S1134D0030B5134D0A034B00120B5B0DC90F002481
S1134D10AB4210DD0F4CA3420FDC80240E4D640324
S1134D202243ED1A1F2D0BDD0C48C31ADA405442FE
S1134D30002900D11400200030BD094BCC18FAE73B
S1134D40084CE840A44663449A400243EFE7C04657
S1134D50FE0300001D0400003304000013040000DF
S1134D60FFFFFF7FEDFBFFFF4100090E4B1C70B5F9
S1134D70DBB24602750AC40F012B14DDE0239B004D
S1134D806D07360BCB1800210A0D280012051C4DA7
S1134D9032435B052A405B0813435B00E4075B086E
S1134DA02343190070BD002914D1002D1ED0280002
S1134DB000F06AF80A281CDC0B232A001B1ADA40CC
S1134DC0030015339D400F4B12031B1A5B05160B92
S1134DD05B0DD8E7002D06D0320B802636036D0715
S1134DE01643094BCFE7084B0026CCE700230026E7
S1134DF0C9E703002A000B3B9A400025E3E7C046BD
S1134E00FFFF0F8089030000FF0700008446101C89
S1134E1062468C46191C634600E0C0461FB500F08C
S1134E20EFF8002801D40021C8421FBD10B500F0DE
S1134E3049F84042013010BD10B500F0E1F80028F7
S1134E4001DB002010BD012010BDC04610B500F0EC
S1134E50D7F8002801DD002010BD012010BDC04698
S1134E6010B500F069F8002801DC002010BD012015
S1134E7010BDC04610B500F05FF8002801DA00202C
S1134E8010BD012010BDC0461C2101231B04984203
S1134E9001D3000C10391B0A984201D3000A0839C7
S1134EA01B09984201D30009043902A2105C40187E
S1134EB07047C04604030202010101010000000022
S1134EC000000000F0B54F464646D6465C00C0B52B
S1134ED01F03DB0F9A46174B0E034D008446804692
S1134EE0360B6D0DC90F91463F0B640D01209D4299
S1134EF008D09C4201D0A5420BD01CBC90469946D8
S1134F00A246F0BD63463343F7D1AC42F5D13A43F0
S1134F10F3D10120BE42F0D1C845EED1514507D0AE
S1134F20002DEAD163461E433000461EB041E4E73B
S1134F300020E2E7FF070000F0B54546DE4657468D
S1134F404E46E0B51F033D0B2C4F0E034C00AB4601
S1134F505D008446360B640DC90F90466D0DDB0F62
S1134F60BC422AD0254FBD422DD0002C0FD1304356
S1134F700700814678427841C0B2002D17D15F46C0
S1134F803A4314D14B460020002B0AD006E0002DF2
S1134F9002D15846024301D0994218D04842012117
S1134FA008433CBC90469946A246AB46F0BD002857
S1134FB0F2D00120013B1843F3E737000743D1D077
S1134FC002204042EDE75F461743CED0F8E7AC42FB
S1134FD0E4DC03DA481E01210843E2E75E45DDD83C
S1134FE006D000205E45DCD20123481E1843D8E7D2
S1134FF0C445D3D80020C445F6D3D2E7FF07000048
S1135000F0B54E464546DE4657465C00E0B51F0304
S1135010DB0F99462A4B0E034D00C90F8446360B0D
S11350206D0D8B4690463F0B640D9D4220D0244B62
S11350309C4222D0002D12D1304343424341DBB283
S1135040002C1FD0002B0CD04B460120013B034306
S113505018003CBC90469946A246AB46F0BD002CD5
S113506016D0CB4517D05B46594201230B43EFE7DB
S1135070310002230143EBD1D9E739000223114364
S1135080E6D1D7E73A43DDD100230028E0D0EAE7B0
S11350903A43E6D1E7E7A542E5DC05DBBE42E2D8C8
S11350A007D00023BE42D3D25946012301390B4312
S11350B0CEE7C445D7D80023C445F5D3C8E7C046D6
S11350C0FF07000070B500260C4D0D4C641BA410A6
S11350D0A64209D1002601F017FD0A4D0A4C641BB3
S11350E0A410A64205D170BDB300EB589847013611
S11350F0EEE7B300EB5898470136F2E7146B000073
S1135100146B0000146B0000186B0000931E10B5A4
S11351100C00222B04D900231C000B70200010BDAE
S11351200A2A09D1002807DA2D230B7001214042F5
S1135130611800F053F9F1E70021F9E710B5FFF722
S1135140E5FF10BD002310B59A4200D110BDCC5C20
S1135150C4540133F8E703008218934200D1704726
S113516019700133F9E700000FB40B4B13B51C6839
S1135170002C05D0A369002B02D1200000F02CFBE9
S113518005AB049AA1682000019300F0FBFC16BC57
S113519008BC04B01847C0463400002070B50500B0
S11351A00E00002804D08369002B01D100F014FB09
S11351B0AB69AC68002B02D1280000F00DFB244B36
S11351C09C420FD16C68A3891B0702D52369002B6D
S11351D020D12100280000F091F900281AD00120E4
S11351E0404270BD1B4B9C4201D1AC68EBE71A4BAB
S11351F09C42E8D1EC68E6E7013B0136A360002B52
S113520004DAA269934216DB0A2914D023685A1CD3
S1135210226019703178A3680029EDD1013BA360A5
S1135220002B0FDA22000A31280000F011F9431C88
S1135230D5D00A20D5E72200280000F009F9431C44
S1135240E8D1CCE70A2023685A1C22601870C8E70A
S1135250946A0000B46A0000746A000010B5034B3D
S113526001001868FFF79AFF10BDC0463400002003
S11352704A424A41802310B55200DB0000F002F894
S113528010BD0000F0B51D004F4B85B01E68040032
S11352900F000092002E05D0B369002B02D130001C
S11352A000F09AFA494B9C4250D17468009B022B3F
S11352B005D0012B00D984E0002D00DA81E0210023
S11352C0300000F01BFA616B002908D0230044333E
S11352D0994202D0300000F085FB00236363002371
S11352E0A3616360A3891B0603D52169300000F024
S11352F079FBA389364A1340A381009B022B5AD021
S113530003AB02AA2100300000F0FCFAA389184381
S1135310A081002D24D1029D280000F059FB0195A5
S1135320071E42D1029B0193AB4239D10120404276
S11353300223A2891343A3810023A36023004733DC
S1135340236023610123636105B0F0BD214B9C42BE
S113535001D1B468AAE7204B9C42A7D1F468A5E721
S1135360002FD9D0B369002B02D1300000F034FAF9
S1135370009B012B03D1A389009A1A43A281082020
S1135380A389276027616561184018D0012018405F
S11353900023984211D06D42A360A5611800D3E7A1
S11353A0019800F015FB071EC0D08023A289019D3F
S11353B01343A381D6E70020BAE7A560C4E7A06041
S11353C0C2E701204042BFE734000020946A000095
S11353D05CF3FFFFB46A0000746A0000F0B51700C4
S11353E08FB0252206000D0004A81849FFF7AAFE75
S11353F004AABB1E00240392222B05D92C7025007D
S113540028000FB0F0BD019C631C0193EB180093BE
S11354103000013B39000293FEF714FB039B029A10
S11354205B5C300013703900FEF786FA061EEAD181
S1135430009B18702B005A1B9442E1DD1A78295DF9
S113544019702A550133013CF5E7C0464C6A000047
S1135450F8B505000E001400002804D08369002B61
S113546001D100F0B9F9224B9C422DD16C68A3699B
S1135470A360A3891B0731D52369002B2ED0236891
S11354802269F7B2981A6369F6B2984205DB2100E3
S1135490280000F033F9002826D1A3680130013B2D
S11354A0A36023685A1C22601F706369984204D069
S11354B0A389DB071AD50A2E18D12100280000F091
S11354C01DF9002812D00FE00A4B9C4201D1AC68B0
S11354D0CDE7094B9C42CAD1EC68C8E721002800FB
S11354E000F00CF80028CAD0012676423000F8BD3E
S11354F0946A0000B46A0000746A0000364B70B508
S11355001D6806000C00002D05D0AB69002B02D1EC
S1135510280000F061F9314B9C420FD16C680C23D8
S1135520E25E93B219072DD4D90611D409230120C0
S1135530336037331343A381404270BD284B9C42F0
S113554001D1AC68EBE7274B9C42E8D1EC68E6E775
S11355505B0713D5616B002908D0230044339942BB
S113556002D0300000F03EFA002363632422A389B2
S11355709343A38100236360236923600823A289E2
S11355801343A3812369002B0BD1A0218022A3897B
S1135590890092000B40934203D02100300000F0B8
S11355A0D9F90123A289134011D00023A3606369B0
S11355B05B42A361002023698342BED10C23E25ED7
S11355C01306BAD540231343A3810138B5E79207E4
S11355D000D46369A360EDE734000020946A0000FE
S11355E0B46A0000746A0000F7B58A8905000C00EB
S11355F0130760D44B68002B04DC0B6C002B01DC1C
S11356000020FEBDE76A002FFAD000232E682B602D
S113561080235B011A4034D0606DA3895B0706D5F3
S11356206368C01A636B002B01D0236CC01A02009C
S1135630216A00232800E76AB847A189431C06D1E0
S11356402B681D2B31D82C4ADA40D3072DD50023E3
S1135650636023692360CB0405D5431C02D12B6806
S1135660002B00D16065616B2E600029C8D0230037
S11356704433994202D0280000F0B4F9002060635A
S1135680BFE70123216A2800B847431CC5D12B6812
S1135690002BC2D01D2B01D0162B01D12E60AFE7F9
S11356A04023A2891343A381ABE740230B4301208A
S11356B0A3814042A5E70F69002FA1D00B680F60BA
S11356C0DB1B01930023920700D14B69A360019B6C
S11356D0002B00DC94E7019B3A00216A2800A66AAB
S11356E0B047002803DC4023A2891343DFE7019B72
S11356F03F181B1A0193EAE7010040200B6970B5BB
S113570005000C00002B01D1002070BD002804D03E
S11357108369002B01D100F05FF80B4B9C4209D147
S11357206C680C22A35E002BEED021002800FFF74A
S11357305BFFEAE7054B9C4201D1AC68F1E7044BFF
S11357409C42EED1EC68ECE7946A0000B46A000075
S1135750746A000010B5024900F0B2F810BDC046EA
S1135760FD560000002310B504000360436083600D
S113577081814366C2810361436183611900082208
S11357805C30FFF7E8FC054B24626362044BA362C0
S1135790044BE362044B236310BDC046F160000078
S11357A019610000516100007D61000070B5682539
S11357B04A1E55430E002900743100F05DF9041EA1
S11357C008D000212A00016046600C30A0606832D5
S11357D0FFF7C1FC200070BD836913B50400002BE2
S11357E028D18364C3640365134B144A1B68826223
S11357F00193984201D101238361200000F020F835
S11358006060200000F01CF8A060200000F018F890
S11358100022E06004216068FFF7A4FF012209214F
S1135820A068FFF79FFF02221221E068FFF79AFFAA
S11358300123A36113BDC046486A00005557000008
S1135840F8B51E4B07001E68B369002B02D1300067
S1135850FFF7C2FF4836B4687368013B04D5336868
S1135860002B07D03668F6E70C22A55E002D0DD07C
S11358706834F2E704213800FFF798FF306000280D
S1135880F0D10C2304003B602000F8BD012320006C
S11358905B42E3810233A38165662560A560656090
S11358A025616561A561082229005C30FFF753FC7E
S11358B06563A563A564E564E6E7C046486A00003D
S11358C0F7B504000700002601914834002C01D1EB
S11358D03000FEBD6368A5680093009B013B009304
S11358E001D52468F2E7AB89012B08D90E22AB5EFF
S11358F0013304D029003800019B984706436835DA
S1135900EBE7000070B50E001D000E23C95E90B0D9
S11359101400002907DA00232B60B3891B0611D475
S11359208023DB000FE001AA00F054FC0028F2DB26
S1135930F022029B12021340054A9B185A4253411B
S11359402B60EDE740230020236010B070BDC046FB
S113595000E0FFFFF7B502268B8905000C003342F7
S113596006D0230047332360236101236361F7BD1D
S113597001AB6A46FFF7C6FF00990700280000F054
S11359807BF8002806D10C22A35E9A05EFD41E43AF
S1135990A681E6E70D4BAB628023A2892060134306
S11359A0A381009B20616361019B002B0AD00E231D
S11359B0E15E280000F020FC002803D00123A28926
S11359C01343A381A0893843A081D0E75557000031
S11359D010B5034B0100186800F04EF810BDC04626
S11359E03400002070B50500002910D00C1F236876
S11359F0002B00DAE418280000F02FFC1D4A13687D
S1135A00002B05D163601460280000F027FC70BDF2
S1135A10A34209D9216860188342F3D118685B68EE
S1135A2041182160EEE713005A68002A01D0A2420F
S1135A30F9D919685818A0420BD1206809185818C8
S1135A4019608242E0D110685268411819605A60A6
S1135A50DAE7A04202D90C232B60D5E7216860184D
S1135A60824203D1106852684118216062605C6010
S1135A70CAE7C04658060020032370B5CD1C9D43D9
S1135A80083506000C2D1ED20C25A9421DD8300065
S1135A9000F0E3FB254A14682100002919D1244CA5
S1135AA02368002B03D1300000F010FB2060290094
S1135AB0300000F00BFB431C2CD10C23300033606E
S1135AC000F0CCFB03E0002DDFDA0C233360002070
S1135AD070BD0B685B1B1AD40B2B03D90B60CC185D
S1135AE0256003E08C420ED163681360300000F03F
S1135AF0B5FB200007220B30231D9043C31AE7D0C7
S1135B005A42E250E4E74B6863600C00EEE70C0095
S1135B104968C2E70323C41C9C43A042E0D0211A75
S1135B20300000F0D3FA431CDAD1C6E7580600204F
S1135B305C060020936810B5013B9360002B05DAE6
S1135B409469A34208DBCBB20A2B05D01368581C16
S1135B5010601970C8B210BDFFF77AFCFBE7F8B506
S1135B6006000F001400D518AC4201D1002007E054
S1135B7021783A003000FFF7DDFF0134431CF3D1F4
S1135B80F8BD0000F0B59FB006000F0014000593A7
S1135B90002804D08369002B01D1FFF71DFE7F4B41
S1135BA09F425CD17768BB891B0762D53B69002B98
S1135BB05FD0002306AD6B6120336B761033AB7678
S1135BC00294029C2378002B5DD1029BE31A049378
S1135BD00DD0049B029A39003000FFF7C0FF431C2C
S1135BE000D1CCE06A69049B944663446B612378DA
S1135BF0002B00D1C3E00122002352426A6002A9B3
S1135C005432521801342B60EB60AB601370AB65F7
S1135C1021780522624800F015FB631C9C4600288D
S1135C2035D12968CB0604D5532302AA20309B180A
S1135C3018700B0704D553232B2002AA9B18187045
S1135C4023782A2B2CD000200A21099B2278303A71
S1135C50092A00D86BE000282AD0099328E0514B88
S1135C609F4201D1B7689EE74F4B9F429BD1F76893
S1135C7099E739003000FFF741FC002899D0012052
S1135C8040421FB0F0BD252B9FD001349AE7444B0E
S1135C902968C01A012383400B432B606446B7E78D
S1135CA0059B181D1B680590002B3ADB099364467D
S1135CB023782E2B0BD16378621C2A2B3FD1059BB2
S1135CC002341A1D1B680592002B35DB07932178DB
S1135CD00322364800F0B6FA002807D0334B2A686E
S1135CE0C01A4023834013432B6001342178631C82
